:020000040800F2
:1000000000000120C51F000855050008570500081D
:10001000590500085B0500085D05000800000000A8
:100020000000000000000000000000005F05000864
:100030006105000800000000630500086505000870
:100040000D2000080D2000080D2000080D200008DC
:100050000D2000080D2000080D2000080D200008CC
:100060000D2000080D2000080D2000080D200008BC
:100070000D2000080D2000080D2000080D200008AC
:100080000D2000080D2000080D2000080D2000089C
:100090000D2000080D2000080D2000080D2000088C
:1000A0000D2000080D2000080D2000080D2000087C
:1000B0000D2000080D2000080D2000080D2000086C
:1000C0000D2000080D2000080D2000080D2000085C
:1000D0000D2000080D2000080D2000080D2000084C
:1000E0000D2000080D2000080D2000080D2000083C
:1000F0000D2000080D2000080D2000080D2000082C
:100100000D2000080D2000080D2000080D2000081B
:100110000D2000080D2000086D0500080D200008C6
:100120000D2000080D2000080D2000080D200008FB
:1001300000000000000000000000000000000000BF
:1001400000000000000000000000000000000000AF
:10015000000000000000000000000000000000009F
:10016000000000000000000000000000000000008F
:10017000000000000000000000000000000000007F
:10018000000000000000000000000000000000006F
:10019000000000000000000000000000000000005F
:1001A000000000000000000000000000000000004F
:1001B000000000000000000000000000000000003F
:1001C000000000000000000000000000000000002F
:1001D000000000000000000000000000000000001F
:0401E0005FF8E0F1F3
:1001E40010B5054C237833B9044B13B10448AFF36D
:1001F40000800123237010BD1000002000000000C7
:100204006820000808B5034B1BB103490348AFF34A
:10021400008008BD000000001400002068200008D1
:10022400034613F8012B002AFBD1181A0138704732
:1002340030B591B0002409940B940C940194029469
:10024400039404940594012206924FF48033079397
:1002540008940A9202250D950E934FF4E0130F9320
:1002640006A800F017FD0F230193029503944FF4A1
:10027400806304930594294601A800F049FF11B056
:1002840030BD000010B500F0B7FCFFF7D1FF00F05F
:1002940021F800F051F800F09FF800F003F901F0A4
:1002A400D5FB094801F0A6F9012100E021464C1CC8
:1002B400E4B2064801F0ACFC4FF47A7000F0C0FCE4
:1002C400642CF3D10021F2E790080020802000087C
:1002D4007047000030B587B000240294039404945E
:1002E4000594134B9A6942F004029A619A6902F0E8
:1002F40004020092009A9A6942F008029A619B698A
:1003040003F008030193019B0A4D2246202128464D
:1003140001F0F6F8202302930123039304940223AB
:10032400059302A9284600F0CFFF07B030BD00BFF7
:1003340000100240000C014008B50B480B4B036051
:100344000B4B436000238360C3604FF4804202611F
:1003540043618361C361036200F098FA00B908BD88
:10036400FFF7B6FFFBE700BF3C0800200054004045
:100374004024140010B586B0002302930393049321
:1003840005930268114B9A4201D006B010BD104C7F
:10039400A36943F00803A361A36903F0080300936E
:1003A400009BC0230293122303930323059302A902
:1003B400084800F089FFE36943F40013E361E3694B
:1003C40003F400130193019BDFE700BF00540040D6
:1003D40000100240000C014000B583B000230093DC
:1003E40001930F480F4A026047224260836040F243
:1003F400E732C260836101F047FA50B900230093E9
:1004040001936946064801F06BFA28B903B05DF818
:1004140004FBFFF75DFFF1E7FFF75AFFF6E700BFC4
:10042400900800200010004002680E4B9A4200D051
:10043400704700B583B003F50033DA6942F0100267
:10044400DA61DB6903F010030193019B002211467A
:10045400362001F077F8362001F0A8F803B05DF8F3
:1004640004FB00BF0010004008B502680A4B1B687B
:100474009A4200D008BD094A138801339BB2138005
:10048400B3F57A7FF6D3134600221A80202104485C
:1004940001F03CF8EEE700BF900800202C0000209B
:1004A400000C014008B50A480A4B03604FF4E133DD
:1004B400436000238360C36003610C224261836153
:1004C400C36101F093FA00B908BDFFF701FFFBE730
:1004D400D80800200038014010B586B000230293EC
:1004E4000393049305930268174B9A4201D006B014
:1004F40010BD03F558439A6942F480429A619A699F
:1005040002F480420092009A9A6942F004029A61CD
:100514009B6903F004030193019B4FF4007302935E
:100524000223039303230593084C02A9204600F0F9
:10053400CBFE4FF48063029300230393049302A938
:10054400204600F0C1FED2E7003801400008014017
:100554007047FEE7FEE7FEE7FEE770477047704727
:1005640008B500F05BFB08BD08B5024801F082F84D
:1005740008BD00BF9008002082B00E4B9A6942F07B
:1005840001029A619A6902F001020092009ADA6902
:1005940042F08052DA61DB6903F080530193019BDE
:1005A400054A536823F0E06343F00073536002B0DC
:1005B400704700BF001002400000014003685A6900
:1005C40012F4806F01D1002070476FF480625A6189
:1005D40000230363202280F83D2080F83E30026C23
:1005E40042F00402026480F83C30012070472DE997
:1005F400F04107460D4690461E4622E000F01AFBE5
:10060400069BC01AB04200D8DEB900233B63202207
:1006140087F83D2087F83E303A6C42F020023A6475
:1006240087F83C3001201AE03B689C6925EA040401
:10063400A4B2B4FA84F46409A0450FD1B6F1FF3F23
:10064400DCD1C5F30743012BEED13B685C6925EA95
:100654000404A4B2B4FA84F46409EDE70020BDE80C
:10066400F0812DE9F04105460E46174698463DE0D7
:100674001A6842F400721A602B686FF480625A613F
:1006840000232B63202285F83D2085F83E302A6C18
:1006940042F004022A6485F83C30012034E000F082
:1006A400C9FAA0EB0800B84200D8FFB900232B63B5
:1006B400202285F83D2085F83E302A6C42F0200245
:1006C4002A6485F83C3001201EE02B689C6926EAE8
:1006D4000404A4B2003C18BF0124A4B12B685A69D5
:1006E40012F4806FC4D1B7F1FF3FD8D1C6F30743EA
:1006F400012BEAD12B685C6926EA0404A4B2003C0D
:1007040018BF0124E9E70020BDE8F08170B5044674
:100714000D46164623685B6913F0800F1CD12046F2
:10072400FFF74CFFD0B9B5F1FF3FF3D000F082FAE8
:10073400801BA84201D8002DECD100232363202282
:1007440084F83D2084F83E30226C42F0200222647A
:1007540084F83C30012000E0002070BD0120FCE75B
:100764002DE9F04385B004460D4691461F46DDF859
:1007740030800D9E0368196841F4807119600096F9
:10078400434600224FF00111FFF731FF60B923689F
:1007940005F0FE051D613346424626492046FFF713
:1007A40060FF68B1012008E023681B6813F4807FB0
:1007B40002D04FF400732364032005B0BDE8F08336
:1007C4000023039323685A6903929B690393039B51
:1007D400324641462046FFF799FF30B9012F0FD129
:1007E40023685FFA89F61E61E7E7236C042B01D0C6
:1007F4000120E2E72268136843F400731360F7E70B
:1008040023684FEA19221A61324641462046FFF70F
:100814007DFF20B923685FFA89F61E61CDE7236C5A
:10082400042B01D00120C8E72268136843F4007345
:100834001360F7E70200010070B504460D46164642
:1008440023685B6913F0040F1CD12046FFF7B6FE42
:10085400D0B9B5F1FF3FF3D000F0ECF9801BA8420A
:1008640001D8002DECD100232363202284F83D20FD
:1008740084F83E30226C42F02002226484F83C303A
:10088400012000E0002070BD0120FCE7002800F0FA
:10089400CC80F8B5044690F83D30002B77D0242363
:1008A40084F83D302268136823F001031360226842
:1008B400136843F4004313602268136823F400436D
:1008C400136000F0E1FC62685A4B9A4264D85A4BB8
:1008D40098428CBF00230123002B40F0A880574D81
:1008E400A5FB0035AF0C2668716821F03F0141EA91
:1008F4009541716021680B6A23F03F0365684D4A96
:1009040095424FD87A1C13430B622568E96921F498
:100914004F4121F0FF016368464A93424CD80138A5
:100924005B00B0FBF3F0013040F6FC73184278D062
:10093400C0F30B030B43EB6121680B6823F0C00386
:10094400E269206A024313430B6021688B6823F435
:10095400034323F0FF032269E068024313438B60DF
:100964002168CB6823F0FF036269A0690243134343
:10097400CB602268136843F00103136000202064F5
:10098400202384F83D30206384F83E00F8BD80F8CD
:100994003C30FFF7EFFC82E7294B98428CBF0023E1
:1009A400012399E74FF4967202FB07F2254DA5FB4C
:1009B400025292090132A6E7A268BAB9461E03EBB5
:1009C4004307B6FBF7F60136C6F30B06B6FA86F60E
:1009D400760946BBC2B9421E03EB4303B2FBF3F2F2
:1009E4000132C2F30B0242F40043A3E7461E03EBB9
:1009F400830707EB8707B6FBF7F60136C6F30B064A
:100A0400B6FA86F67609E4E7421E03EB830303EBAA
:100A14008303B2FBF3F20132C2F30B0242F440430C
:100A240088E7042386E7012384E701207047012037
:100A3400ACE700BFA08601007F841E0083DE1B4359
:100A4400FF083D00D34D62102DE9F04383B0044606
:100A54000F46904699460C9E00F0ECF8054694F833
:100A64003D00C0B2202803D0022003B0BDE8F083CB
:100A74000095192301224B492046FFF7B8FD0028B1
:100A840040F0898094F83C30012B00F086800123EB
:100A940084F83C3023681A6812F0010F03D11A68F5
:100AA40042F001021A602268136823F400631360A1
:100AB400212384F83D30402384F83E30002323640E
:100AC4000A9B6362BDF82C306385638D2385364BA6
:100AD400E362019500964B46424639462046FFF7AD
:100AE4003FFE00285BD1238D002B35D02A463146AA
:100AF4002046FFF70BFE20BB626A236812781A6156
:100B0400616A4B1C6362228D013A92B22285638D25
:100B14009BB2013B9BB263852368586910F0040FB4
:100B2400E1D0002ADFD04A781A61636A0133636234
:100B3400238D013B2385638D9BB2013B9BB263856F
:100B4400D1E7236C042B01D001208EE722681368BF
:100B540043F400731360F7E72A4631462046FFF753
:100B64006BFE50B1236C042B01D001207DE7226879
:100B7400136843F400731360F7E72268136843F4BF
:100B840000731360202384F83D30002384F83E3042
:100B940084F83C3069E7022067E7022065E701201A
:100BA40063E700BF020010000000FFFF10B5044619
:100BB4000E4B18784FF47A73B3FBF0F30C4A1068B9
:100BC400B0FBF3F000F000FD68B90F2C01D901204F
:100BD4000AE0002221464FF0FF3000F0B3FC054B41
:100BE4001C60002000E0012010BD00BF00000020B8
:100BF400080000200400002008B5074A136843F0E9
:100C040010031360032000F08BFC0020FFF7CEFFDD
:100C1400FFF7B2FC002008BD00200240034A11681F
:100C2400034B1B780B441360704700BF1809002066
:100C340000000020014B1868704700BF180900200D
:100C440038B50446FFF7F6FF0546B4F1FF3F02D07E
:100C5400044B1B781C44FFF7EDFF401BA042FAD362
:100C640038BD00BF0000002082B0084B1B68084A52
:100C7400A2FB03235B0A00FB03F3019300BF019B68
:100C84005A1E0192002BF9D102B0704708000020CF
:100C9400D34D6210002800F0F18170B582B0044693
:100CA400036813F0010F2CD0AA4B5B6803F00C030C
:100CB400042B1DD0A74B5B6803F00C03082B12D048
:100CC4006368B3F5803F41D0002B55D103F18043D5
:100CD40003F504331A6822F480321A601A6822F485
:100CE40080221A6037E09B4B5B6813F4803FE7D0A7
:100CF400984B1B6813F4003F03D06368002B00F08B
:100D0400BF81236813F0020F75D0924B5B6813F018
:100D14000C0F5FD08F4B5B6803F00C03082B54D08F
:100D24002369002B00F089808B4B01221A60FFF7A6
:100D340081FF0546874B1B6813F0020F74D1FFF740
:100D440079FF401B0228F5D903209EE1814A1368EC
:100D540043F480331360636843B3FFF76BFF0546C6
:100D64007C4B1B6813F4003FCBD1FFF763FF401BA0
:100D74006428F5D9032088E1B3F5A02F09D0754B79
:100D84001A6822F480321A601A6822F480221A60E7
:100D9400E1E703F18043A3F53C331A6842F480226F
:100DA4001A601A6842F480321A60D4E7FFF742FFEF
:100DB4000546684B1B6813F4003FA2D0FFF73AFFC7
:100DC400401B6428F5D903205FE1624B5B6813F490
:100DD400803FA5D15F4B1B6813F0020F03D023693A
:100DE400012B40F04F815B4A136823F0F8036169DB
:100DF40043EAC1031360236813F0080F32D0A369D8
:100E0400002B45D0554B01221A60FFF713FF05460E
:100E1400504B5B6A13F0020F21D1FFF70BFF401B0D
:100E24000228F5D9032030E14A4A136823F0F80375
:100E3400616943EAC1031360DDE7474B00221A608E
:100E4400FFF7F8FE0546434B1B6813F0020FD2D0A0
:100E5400FFF7F0FE401B0228F5D9032015E101201D
:100E6400FFF702FF236813F0040F00F09780394B5B
:100E7400DB6913F0805F1DD1364BDA6942F0805292
:100E8400DA61DB6903F080530193019B012512E0D1
:100E9400324B00221A60FFF7CDFE05462D4B5B6AEC
:100EA40013F0020FDED0FFF7C5FE401B0228F5D970
:100EB4000320EAE000252A4B1B6813F4807F11D03D
:100EC400E368012B22D0002B38D103F1804303F5D2
:100ED40004331A6A22F001021A621A6A22F0040226
:100EE4001A6218E01E4A136843F480731360FFF714
:100EF400A1FE06461A4B1B6813F4807FE0D1FFF76E
:100F040099FE801B6428F5D90320BEE0114A136AB8
:100F140043F001031362E36873B3FFF78BFE0646E5
:100F24000C4B1B6A13F0020F37D1FFF783FE801BB3
:100F340041F288339842F3D90320A6E0052B11D05F
:100F4400044B1A6A22F001021A621A6A22F004029D
:100F54001A62E0E70010024000004242800442426C
:100F6400007000404D4B1A6A42F004021A621A6A79
:100F740042F001021A62CEE7FFF75CFE0646474BD9
:100F84001B6A13F0020F08D0FFF754FE801B41F2D6
:100F940088339842F3D9032077E0E5B9E369002B5D
:100FA40072D03E4A526802F00C02082A56D0022B34
:100FB40017D03B4B00221A60FFF73CFE0446374B28
:100FC4001B6813F0007F47D0FFF734FE001B022894
:100FD400F5D9032059E0314AD36923F08053D36112
:100FE400DCE72F4B00221A60FFF724FE05462B4B4B
:100FF4001B6813F0007F06D0FFF71CFE401B02287D
:10100400F5D9032041E0236AB3F5803F1AD0234980
:101014004B6823F47413226A606A024313434B60DF
:101024001F4B01221A60FFF705FE04461B4B1B6889
:1010340013F0007F0ED1FFF7FDFD001B0228F5D948
:10104400032022E0154A536823F40033A1680B43BC
:101054005360DCE7002018E0002016E0012B16D0D6
:101064000E4B5B6803F48031226A914211D103F480
:101074007013626A93420ED1002006E0012070478B
:10108400012002E0012000E0002002B070BD012038
:10109400FBE70120F9E70120F7E700BF0010024059
:1010A4006000424286B0164B0FCB0DF1180C0CE9D0
:1010B4000F0040F20123ADF80430124B5B6803F0DB
:1010C4000C02082A02D0104806B07047C3F38342CA
:1010D400624412F8102C13F4803F0CD0094B5B6867
:1010E400C3F34043634413F8143C074800FB02F085
:1010F400B0FBF3F0E8E7054800FB02F0E4E700BFCB
:101104008C2000080010024000127A0000093D0003
:10111400002800F0A08070B50D460446524B1B68B1
:1011240003F007038B420BD24F4A136823F00703E3
:101134000B431360136803F007038B4240F08D8068
:10114400236813F0020F17D013F0040F04D0474A9A
:10115400536843F4E0635360236813F0080F04D02A
:10116400424A536843F460535360404A536823F03F
:10117400F003A1680B435360236813F0010F31D0CF
:101184006368012B20D0022B25D0384A126812F054
:10119400020F64D035494A6822F0030213434B60BE
:1011A400FFF748FD0646314B5B6803F00C036268A9
:1011B400B3EB820F16D0FFF73DFD801B41F288335D
:1011C4009842F0D9032045E0284A126812F4003FFF
:1011D400E0D101203EE0254A126812F0007FD9D107
:1011E400012037E0204B1B6803F00703AB420AD908
:1011F4001D4A136823F007032B431360136803F09D
:101204000703AB422DD1236813F0040F06D0174A0D
:10121400536823F4E063E1680B435360236813F0DD
:10122400080F07D0114A536823F46053216943EA35
:10123400C1035360FFF736FF0C4B5B68C3F3031322
:101244000B4AD35CD8400B4B18600B4B1868FFF764
:10125400ADFC002070BD012070470120FAE7012099
:10126400F8E70120F6E700BF00200240001002402A
:10127400A02000080800002004000020014B18688A
:10128400704700BF0800002008B5FFF7F7FF044BC4
:101294005B68C3F30223034AD35CD84008BD00BF94
:1012A40000100240B020000808B5FFF7E7FF044B28
:1012B4005B68C3F3C223034AD35CD84008BD00BFB4
:1012C40000100240B0200008F0B482B000252C4683
:1012D400ABE0854FBB4210D007D9844FBB420CD042
:1012E40007F58037BB4208D013E0A7F58017BB424F
:1012F40003D007F57027BB4207D18B68002B60D061
:10130400012B59D04261082503E0A7F58017BB42A1
:10131400F3D0FF2E57D88446FF2E57D8A200DCF80E
:1013240000300F27974023EA070305FA02F213431C
:10133400CCF800304B6813F0805F75D06C4B9A6921
:1013440042F001029A619B6903F001030193019B3E
:10135400A208971C674B53F827C004F003039F00AF
:101364000F23BB402CEA030C634B984234D003F5A3
:101374008063984200F0948003F58063984200F003
:10138400918003F58063984200F08E8003F58063BA
:10139400984200F08B8003F5806398421AD00623AC
:1013A4001BE0CD68B5E7CD680435B2E7CD680835F4
:1013B400AFE7CD680C35ACE702610825A9E7002545
:1013C400A7E70425A5E700F1040CA5E7A4F10802AA
:1013D4009200A4E7052300E00023BB4043EA0C038A
:1013E4000232444F47F822304B6813F4803F5FD0F9
:1013F400424A1368334313604B6813F4003F5DD0D3
:101404003E4A5368334353604B6813F4801F5BD0E8
:101414003A4A9368334393604B6813F4001F59D0DE
:10142400364AD3681E43D66001340B6833FA04F29B
:1014340056D00122A24003EA020632EA0303F3D1A2
:101444004B68122B3FF645AF122B3FF662AF01A754
:1014540057F823F0FF120008A7130008B11300087F
:10146400C313000817130008171300081713000804
:1014740017130008171300081713000817130008A0
:101484001713000817130008171300081713000890
:101494001713000817130008AB130008B71300084C
:1014A40001239AE7022398E7032396E7042394E7AA
:1014B400124A136823EA060313609DE70F4A536830
:1014C40023EA060353609FE70C4A936823EA060362
:1014D4009360A1E7094AD36823EA0606D660A3E726
:1014E40002B0F0BC704700BF0000221000003110B1
:1014F40000100240000001400008014000040140C7
:101504000AB101617047090401617047C36801EAC7
:10151400030221EA030141EA02410161704700002C
:10152400074AD36823F4E0631B041B0C000200F495
:10153400E060034343F0BF6343F40033D360704778
:1015440000ED00E030B4174BDB68C3F30223C3F1B2
:101554000704042C28BF04241D1D062D18D9033BA1
:101564004FF0FF3505FA04F421EA0401994005FA25
:1015740003F322EA0303194300280BDB0901C9B270
:1015840000F1604000F5614080F8001330BC704702
:101594000023E5E700F00F000901C9B2024B19541A
:1015A400F4E700BF00ED00E014ED00E0002807DBE5
:1015B40000F01F02400901239340024A42F8203000
:1015C400704700BF00E100E00138B0F1807F0AD22B
:1015D400064B5860064AF02182F8231000209860D8
:1015E40007221A6070470120704700BF10E000E036
:1015F40000ED00E090F83D30DBB2012B2FD1022347
:1016040080F83D300268D36843F00103D360036877
:10161400154A934218D002F50062934214D0B3F1F4
:10162400804F11D0A2F5983293420DD002F580621A
:10163400934209D002F58062934205D01A6842F0C1
:1016440001021A60002070479A6802F00702062A15
:1016540007D01A6842F001021A6000207047012086
:1016640070470020704700BF002C0140704770474E
:101674007047704710B5044603681A6912F0020FE8
:1016840011D0DA6812F0020F0DD06FF002021A6165
:101694000123037703689B6913F0030F70D0FFF7EE
:1016A400E6FF0023237723681A6912F0040F12D08F
:1016B400DA6812F0040F0ED06FF004021A610223EC
:1016C400237723689B6913F4407F5FD02046FFF79C
:1016D400CEFF0023237723681A6912F0080F12D073
:1016E400DA6812F0080F0ED06FF008021A610423B2
:1016F40023772368DB6913F0030F4ED02046FFF7EE
:10170400B6FF0023237723681A6912F0100F12D052
:10171400DA6812F0100F0ED06FF010021A6108236D
:1017240023772368DB6913F4407F3DD02046FFF71D
:101734009EFF0023237723681A6912F0010F03D058
:10174400DA6812F0010F36D123681A6912F0800F9B
:1017540003D0DA6812F0800F34D123681A6912F0CA
:10176400400F03D0DA6812F0400F32D123681A69AF
:1017740012F0200F03D0DA6812F0200F30D110BD20
:10178400FFF774FF2046FFF773FF8AE72046FFF751
:101794006DFF2046FFF76CFF9BE72046FFF766FFCF
:1017A4002046FFF765FFACE72046FFF75FFF2046C2
:1017B400FFF75EFFBDE76FF001021A612046FEF7F6
:1017C40053FEC1E76FF080021A61204600F0C5F8AD
:1017D400C3E76FF040021A612046FFF74AFFC5E7EE
:1017E4006FF020021A61204600F0B6F8C7E7000047
:1017F4000368244A904212D002F5006290420ED04F
:10180400B0F1804F0BD0A2F59832904207D002F588
:101814008062904203D002F58062904203D123F0AB
:1018240070034A681343174A904212D002F50062CB
:1018340090420ED0B0F1804F0BD0A2F59832904276
:1018440007D002F58062904203D002F58062904294
:1018540003D123F44073CA68134323F080034A6915
:10186400134303608B68C3620B688362054B984221
:1018740003D003F50063984201D10B69036301238C
:1018840043617047002C014040B310B5044690F802
:101894003D30F3B1022384F83D30214651F8040B66
:1018A400FFF7A6FF012384F8463084F83E3084F81D
:1018B4003F3084F8403084F8413084F8423084F872
:1018C400433084F8443084F8453084F83D300020B7
:1018D40010BD80F83C30FEF7A7FDDBE70120704720
:1018E40090F83C30012B33D030B4012380F83C30E5
:1018F400022380F83D3003685C689D6824F070041E
:101904000A6822435A600368124A934212D002F5CD
:10191400006293420ED0B3F1804F0BD0A2F59832FF
:10192400934207D002F58062934203D002F58062AD
:10193400934204D125F080054A6815439D60012334
:1019440080F83D30002380F83C30184630BC7047A6
:1019540002207047002C01407047704710B50446C0
:101964000268136923F44053C1680B43136183680D
:101974000269134342691A430168CB6823F4B053E4
:1019840023F00C031343CB600268536923F44073C0
:1019940081690B4353610268124B9A421FD0FFF7CF
:1019A40073FC00EB800303EB830362689200B3FBD8
:1019B400F2F20D48A0FB02314909642303FB112311
:1019C4001B013233A0FB03235B0903F0F00202EB9B
:1019D400011203F00F03216813448B6010BDFFF75D
:1019E40063FCDEE7003801401F85EB5158B310B5A6
:1019F400044690F839300BB3242384F83930226834
:101A0400D36823F40053D3602046FFF7A7FF22686E
:101A1400136923F4904313612268536923F02A0362
:101A240053612268D36843F40053D3600020E06319
:101A3400202384F8393084F83A3010BD80F83830E7
:101A4400FEF74AFDD8E701207047704708B500F05B
:101A54008DF808BD08B5002000F078F808BD08B579
:101A640000F070F808BD0078704700007F2862DC41
:101A74003F2960DC10B4304B1B7873B3B2B10B4612
:101A8400002911DBDA104B4201F0070103F00703D0
:101A940058BF594201248C40284B03EBC213195CF4
:101AA4002143195410BC7047CB1DEBE70B460029AA
:101AB40011DBDA104B4201F0070103F0070358BFB2
:101AC400594201248C401D4B03EBC213195C21EADB
:101AD40004011954E6E7CB1DEBE7AAB10B46002934
:101AE40010DBDA104B4201F0070103F0070358BF83
:101AF400594201248C40124B03EBC213195C21435D
:101B04001954CFE7CB1DECE70B46002911DBDA10A3
:101B14004B4201F0070103F0070358BF5942012467
:101B24008C40074B03EBC213195C21EA04011954DE
:101B3400B8E7CB1DEBE770470C0000203000002015
:101B44003004002008B500F017F808BD08B50146B8
:101B54004FF48062014800F07DFA08BD3000002097
:101B6400014B1878704700BF0D00002008B500F045
:101B740073F900F0BBF908BD08B5024800F092F90A
:101B840008BD00BF30000020024601204B1E19B1E1
:101B940002FB00F01946F9E77047000070B50446EF
:101BA40000F008FA0A2C1BD005460D2C1FD001208A
:101BB40000F0FAF90E4E22460E4B1968306800F018
:101BC400DDF8284600F0F0F93368063333600A4A3A
:101BD400127862B17A2B0ADD0A20FFF7DFFF06E0F4
:101BE400044A136808331360014B00221A6070BD65
:101BF40030080020340800200E00002010B50446F0
:101C0400207818B10134FFF7C9FFF9E710BD0000CF
:101C14000FB4F0B583B008AB53F8044B019300251F
:101C240082E0661C6378633B152B00F28F80DFE84B
:101C340003F06D0B8D8D8D8D8D8D8D8D8D8D8D8D99
:101C44008D8D608D8D8D8D32019B1A1D01921F68C3
:101C54003B46002107E00131C9B2464A82FB030238
:101C6400DB17C3EBA203002BF5D10D440FE04C1E90
:101C740021460A20FFF788FFB7FBF0F2D3B200FB3E
:101C8400127703F13000C0B2FFF788FFE1B20029F8
:101C9400EDD1344647E0019B1A1D01921F683B4673
:101CA400002400E013113BB10134E4B21A46002BC6
:101CB400F8DA03F10F02F5E7254406E003F15700D3
:101CC400C0B2FFF76BFF013CE4B284B1611E102087
:101CD400FFF75AFFB7FBF0F2D3B200FB1277092BE0
:101CE400ECD803F13000C0B2FFF758FFEBE73446FD
:101CF40019E0019B1A1D01921C682046FFF77EFF24
:101D04002046FEF78DFA054434460CE0019B1A1D6B
:101D140001921878FFF742FF0135344603E00A20A8
:101D2400FFF73CFF01350134207888B10D2808D035
:101D340025283FF476AF0A28F1D0FFF72FFF0135AD
:101D4400F1E70D20FFF72AFF0135ECE73446EAE717
:101D5400FFF785FE084B1B68362B05DC284603B0CD
:101D6400BDE8F04004B07047034B00221A60FFF74F
:101D740071FEF3E767666666340800202DE9F04FCC
:101D840087B083468946059200F014F90746FFF7A9
:101D9400E7FE039000F002F90490BBF17F0F55DCDD
:101DA400B9F13F0F52DC3D4607EB87035B44002B40
:101DB4004CDD09EBC703002B48DD4FF0000A33E08C
:101DC400049B019322E00AFB05B008FB0591019AEC
:101DD40021443044FFF74AFE0134E4B2BC42F2D35A
:101DE4000136F6B2BE4203D20024F7E70026F9E733
:101DF400029B5B10029308F10108B8F1070F11DC94
:101E0400029B13F0010FDBD0039B0193019B002B7A
:101E1400ECD1039B049A9342EAD0019EE2E70023AB
:101E2400029310E00AF1010ABAF1050F0EDCBAF1CF
:101E3400050FF4D0059B03EB830353440548184472
:101E4400FFF711FE02904FF00008D6E707B0BDE897
:101E5400F08F00BFB820000808B5FEF76DFA08BD82
:101E640000B587B002468DF817106423029301234E
:101E740001930DF11701009178210348FEF7E4FD69
:101E840007B05DF804FB00BF3C08002008B501461C
:101E94000020FFF7E5FF08BD08B501464020FFF725
:101EA400DFFF08BD70B50446002601E00136F6B236
:101EB400072E15D8A6F15000C0B2FFF7E7FF0020A7
:101EC400FFF7E4FF1020FFF7E1FF002515F0800F76
:101ED400ECD114F8010BFFF7DFFF0135EDB2F5E7A4
:101EE40070BD08B50020FFF7DDFF08BD08B5AE20C2
:101EF400FFF7CCFF2020FFF7C9FF1020FFF7C6FF34
:101F0400B020FFF7C3FFC820FFF7C0FF0020FFF792
:101F1400BDFF1020FFF7BAFF4020FFF7B7FF812075
:101F2400FFF7B4FFFF20FFF7B1FFA120FFF7AEFFDB
:101F3400A620FFF7ABFFA820FFF7A8FF3F20FFF77D
:101F4400A5FFA420FFF7A2FFD320FFF79FFF0020E7
:101F5400FFF79CFFD520FFF799FFF020FFF796FFCE
:101F6400D920FFF793FF2220FFF790FFDA20FFF735
:101F74008DFF1220FFF78AFFDB20FFF787FF202069
:101F8400FFF784FF8D20FFF781FF1420FFF77EFF0A
:101F9400AF20FFF77BFFFFF7A4FF08BD014B1878C4
:101FA400704700BF3808002008B1014A107070471C
:101FB4000F000020014B1878704700BF0F0000206D
:101FC400002103E00B4B5B58435004310A480B4B90
:101FD40042189A42F6D30A4A02E0002342F8043B2C
:101FE400084B9A42F9D3FFF730FD00F00FF8FEF7E3
:101FF40049F97047C02500080000002010000020A7
:10200400100000201C090020FEE7000070B5002627
:102014000C4D0D4C641BA410A64209D100F022F80B
:1020240000260A4D0A4C641BA410A64205D170BDBB
:1020340055F8043B98470136EEE755F8043B9847BA
:102044000136F2E7B8250008B8250008B8250008CD
:10205400BC25000803460244934200D1704703F8AC
:10206400011BF9E7F8B500BFF8BC08BC9E467047F1
:0C207400F8B500BFF8BC08BC9E467047E1
:10208000636F756E743A25640D0A0000020304053F
:10209000060708090A0B0C0D0E0F101000000000B7
:1020A0000000000000000000010203040607080908
:1020B000000000000102030400000000003E5B4F2E
:1020C0005B3E3E6B4F6B3E1C3E7C3E1C183C7E3C98
:1020D000181C577D571C1C5E7F5E1C00183C1800A6
:1020E000FFE7C3E7FF0018241800FFE7DBE7FF3036
:1020F000483A060E2629792926407F050507407FA4
:1021000005253F5A3CE73C5A7F3E1C1C08081C1C16
:102110003E7F14227F22145F5F005F5F06097F010C
:102120007F006689956A606060606094A2FFA294F7
:1021300008047E040810207E201008082A1C0808C5
:102140001C2A08081E101010100C1E0C1E0C303813
:102150003E3830060E3E0E06000000000000005F14
:1021600000000007000700147F147F14242A7F2A30
:1021700012231308646236495620500008070300F2
:10218000001C2241000041221C002A1C7F1C2A083E
:10219000083E0808008070300008080808080000A1
:1021A00060600020100804023E5149453E00427F15
:1021B000400072494949462141494D331814127F64
:1021C0001027454545393C4A494931412111090704
:1021D0003649494936464949291E00001400000085
:1021E0004034000000081422411414141414004157
:1021F00022140802015909063E415D594E7C121114
:10220000127C7F494949363E414141227F4141414B
:102210003E7F494949417F090909013E41415173C6
:102220007F0808087F00417F41002040413F017F37
:10223000081422417F404040407F021C027F7F04FF
:1022400008107F3E4141413E7F090909063E415148
:10225000215E7F09192946264949493203017F0138
:10226000033F4040403F1F2040201F3F4038403F39
:10227000631408146303047804036159494D43004F
:102280007F4141410204081020004141417F040286
:10229000010204404040404000030708002054541D
:1022A00078407F28444438384444442838444428FB
:1022B0007F385454541800087E090218A4A49C784E
:1022C0007F0804047800447D40002040403D007FAA
:1022D0001028440000417F40007C047804787C088A
:1022E0000404783844444438FC182424181824245E
:1022F00018FC7C08040408485454542404043F4443
:10230000243C4040207C1C2040201C3C4030403C71
:1023100044281028444C9090907C4464544C4400D1
:102320000836410000007700000041360800020135
:102330000204023C2623263C1EA1A161123A404021
:10234000207A38545455592155557941215454789F
:1023500041215554784020545579400C1E52721238
:1023600039555555593954545459395554545800C0
:1023700000457C410002457D420001457C40F0293A
:102380002429F0F0282528F07C5455450020545489
:102390007C547C0A097F49324949493232484848CD
:1023A00032324A4848303A4141217A3A4240207814
:1023B000009DA0A07D39444444393D4040403D3C0F
:1023C00024FF2424487E4943662B2FFC2F2BFF0932
:1023D00029F620C0887E0903205454794100004426
:1023E0007D413048484A32384040227A007A0A0A11
:1023F000727D0D19317D2629292F28262929292684
:1024000030484D4020380808080808080808382FC8
:1024100010C8ACBA2F102834FA00007B0000081452
:102420002A142222142A14089500220095AA005585
:1024300000AAAA55AA55AA000000FF00101010FF1C
:1024400000141414FF001010FF00FF1010F010F023
:10245000141414FC001414F700FF0000FF00FF1414
:1024600014F404FC141417101F10101F101F141460
:10247000141F00101010F0000000001F10101010AA
:102480001F10101010F010000000FF10101010109E
:1024900010101010FF10000000FF140000FF00FFDC
:1024A00000001F10170000FC04F414141710171478
:1024B00014F404F40000FF00F7141414141414149A
:1024C000F700F7141414171410101F101F1414140D
:1024D000F4141010F010F000001F101F0000001F77
:1024E00014000000FC140000F010F01010FF10FFAA
:1024F000141414FF141010101F00000000F010FF3F
:10250000FFFFFFFFF0F0F0F0F0FFFFFF0000000022
:1025100000FFFF0F0F0F0F0F38444438447C2A2A66
:102520003E147E02020606027E027E026355494187
:10253000633844443C04407E201E2006027E020292
:1025400099A5E7A5991C2A492A1C4C7201724C30A6
:102550004A4D4D303048784830BC625A463D3E497D
:102560004949007E0101017E2A2A2A2A2A44445F21
:10257000444440514A444040444A51400000FF0115
:1025800003E080FF000008086B6B08361236243623
:10259000060F090F06000018180000001010003088
:1025A00040FF0101001F01011E00191D1712003C10
:0825B0003C3C3C00000000006F
:0425B800090200080C
:0425BC00E50100082D
:1025C00001000000100000000024F40001010101DE
:0400000508001FC50B
:00000001FF
