:020000040800F2
:1000000000000120ED220008190600081B06000868
:100010001D0600081F060008210600080000000059
:10002000000000000000000000000000230600089F
:100030002506000800000000270600082906000821
:100040003523000835230008352300083523000830
:100050003523000835230008352300083523000820
:100060003523000835230008352300083523000810
:100070003523000835230008352300083523000800
:1000800035230008352300083523000835230008F0
:1000900035230008352300083523000835230008E0
:1000A00035230008352300083523000835230008D0
:1000B00035230008352300083523000835230008C0
:1000C00035230008352300083523000835230008B0
:1000D00035230008352300083523000835230008A0
:1000E0003523000835230008352300083523000890
:1000F0003523000835230008352300083523000880
:10010000352300083523000835230008352300086F
:10011000352300083523000835230008352300085F
:10012000352300083523000835230008352300084F
:1001300000000000000000000000000000000000BF
:1001400000000000000000000000000000000000AF
:10015000000000000000000000000000000000009F
:10016000000000000000000000000000000000008F
:10017000000000000000000000000000000000007F
:10018000000000000000000000000000000000006F
:10019000000000000000000000000000000000005F
:1001A000000000000000000000000000000000004F
:1001B000000000000000000000000000000000003F
:1001C000000000000000000000000000000000002F
:1001D000000000000000000000000000000000001F
:0401E0005FF8E0F1F3
:1001E40010B5054C237833B9044B13B10448AFF36D
:1001F40000800123237010BD0C00002000000000CB
:100204009023000808B5034B1BB103490348AFF31F
:10021400008008BD000000001000002090230008AA
:1002240030B591B0002409940B940C940194029479
:10023400039404940594012206924FF480330793A7
:1002440008940A9202250D950E934FF4E0130F9330
:1002540006A800F071FD0F230193029503944FF457
:10026400806304930594294601A800F0A3FF11B00C
:1002740030BD00B5A5B000F011FDFFF7D1FF00F0CF
:100284001BF800F04BF800F099F800F0D5F803A83B
:1002940000F0A8F90F2300931E232022402103A875
:1002A40001F0E7FB03A801F042FB4FF47A7000F081
:1002B40019FDEFE77047000030B587B000240294C1
:1002C400039404940594134B9A6942F004029A61CE
:1002D4009A6902F004020092009A9A6942F00802B4
:1002E4009A619B6903F008030193019B0A4D22461E
:1002F4002021284601F056F9202302930123039379
:1003040004940223059302A9284601F02FF807B0AC
:1003140030BD00BF00100240000C014008B50B487E
:100324000B4B03600B4B436000238360C3604FF4AB
:100334008042026143618361C361036200F0EEFAAB
:1003440000B908BDFFF7B6FFFBE700BFB00400200B
:1003540000540040A086010010B586B0002302932B
:100364000393049305930268114B9A4201D006B09B
:1003740010BD104CA36943F00803A361A36903F003
:1003840008030093009BC0230293122303930323C7
:10039400059302A9084800F0E9FFE36943F4001358
:1003A400E361E36903F400130193019BDFE700BFFA
:1003B4000054004000100240000C014000B583B01E
:1003C4000023009301930F480F4A026047224260C2
:1003D400836041F28732C260836101F091F950B9C0
:1003E4000023009301936946064801F0B5F928B942
:1003F40003B05DF804FBFFF75DFFF1E7FFF75AFF79
:10040400F6E700BF04050020001000400268094B15
:100414009A4200D0704782B003F50033DA6942F0A3
:100424001002DA61DB6903F010030193019B02B04F
:10043400704700BF0010004008B50A480A4B03602B
:100444004FF4E133436000238360C36003610C22F3
:1004540042618361C36101F003FA00B908BDFFF78B
:1004640029FFFBE74C0500200038014010B586B099
:10047400002302930393049305930268174B9A4253
:1004840001D006B010BD03F558439A6942F4804286
:100494009A619A6902F480420092009A9A6942F041
:1004A40004029A619B6903F004030193019B4FF4D6
:1004B400007302930223039303230593084C02A9B8
:1004C400204600F053FF4FF480630293002303930C
:1004D400049302A9204600F049FFD2E70038014006
:1004E4000008014010B582B014390C2908D8DFE89F
:1004F40001F00A07071D0E210707070707072E004B
:10050400002002B010BDFFF709FF0120F9E7124BEC
:1005140000221A700120F4E70F4801784C1C047083
:1005240013F8014B0D484454013AD2B2002AF3D1D6
:100534000120E6E74FF47A730093074B1B78074AD0
:100544007821074800F0C8FA18B90120D9E701203A
:10055400D7E70020D5E700BF280000202C000020AA
:10056400B004002008B529392A2936D8DFE801F07B
:100574002119163517353535353535353535353594
:100584003535353535353535353535353535353517
:100594003535351717353525292D310000BF012094
:1005A40008BD0023B3F5A07FF9D200BF01339BB28D
:1005B400F8E7012000F096FBF1E7002380F82730EC
:1005C400EDE7002380F82730E9E7002380F827309F
:1005D400E5E7002380F82730E1E7012380F827309E
:1005E400DDE7000010B50446074B084A084901F04E
:1005F4006BFA204601F038FE0021204601F03BFE54
:10060400204601F087F910BD69050008E9040008D7
:10061400D42300087047FEE7FEE7FEE7FEE77047D5
:100624007047704708B500F04BFB08BD82B00E4B15
:100634009A6942F001029A619A6902F001020092F9
:10064400009ADA6942F08052DA61DB6903F0805380
:100654000193019B054A536823F0E06343F0007360
:10066400536002B0704700BF001002400000014018
:1006740003685A6912F4806F01D1002070476FF447
:1006840080625A6100230363202280F83D2080F8B1
:100694003E30026C42F00402026480F83C300120D7
:1006A40070472DE9F04107460D4690461E4622E06C
:1006B40000F012FB069BC01AB04200D8DEB900233A
:1006C4003B63202287F83D2087F83E303A6C42F0A5
:1006D40020023A6487F83C3001201AE03B689C69A8
:1006E40025EA0404A4B2B4FA84F46409A0450FD141
:1006F400B6F1FF3FDCD1C5F30743012BEED13B68D4
:100704005C6925EA0404A4B2B4FA84F46409EDE74C
:100714000020BDE8F0812DE9F04105460E4617465C
:1007240098463DE01A6842F400721A602B686FF430
:1007340080625A6100232B63202285F83D2085F8CE
:100744003E302A6C42F004022A6485F83C300120D1
:1007540034E000F0C1FAA0EB0800B84200D8FFB9B9
:1007640000232B63202285F83D2085F83E302A6C37
:1007740042F020022A6485F83C3001201EE02B68F8
:100784009C6926EA0404A4B2003C18BF0124A4B165
:100794002B685A6912F4806FC4D1B7F1FF3FD8D1E6
:1007A400C6F30743012BEAD12B685C6926EA0404EB
:1007B400A4B2003C18BF0124E9E70020BDE8F081A1
:1007C400F0B583B004460D4616461F46C36A082B8F
:1007D4000DD0012B0BD013F5803F08D0036B122BE7
:1007E4000AD10268136843F48073136004E022683A
:1007F400136843F4807313600097334600224FF06C
:1008040001112046FFF74DFF80B92369B3F5804FEE
:1008140016D1236805F0FE051D613B463246134997
:100824002046FFF778FFF8B903B0F0BD23681B68D2
:1008340013F4807F02D04FF4007323640320F3E7A2
:10084400EB11226803F0060343F0F00313613B4607
:10085400324607492046FFF75EFF18B92368EDB218
:100864001D61DAE70120DFE70120DDE70200010076
:100874000800010070B504460D46164623685B69FE
:1008840013F0800F1CD12046FFF7F2FED0B9B5F16A
:10089400FF3FF3D000F020FA801BA84201D8002DBE
:1008A400ECD100232363202284F83D2084F83E30D9
:1008B400226C42F02002226484F83C30012000E0E3
:1008C400002070BD0120FCE770B504460D461646B5
:1008D40023685B6913F0040F1CD12046FFF7C8FEA0
:1008E400D0B9B5F1FF3FF3D000F0F6F9801BA84270
:1008F40001D8002DECD100232363202284F83D206D
:1009040084F83E30226C42F02002226484F83C30A9
:10091400012000E0002070BD0120FCE7002800F069
:10092400CC80F8B5044690F83D30002B77D02423D2
:1009340084F83D302268136823F0010313602268B1
:10094400136843F4004313602268136823F40043DC
:10095400136000F0EBFC62685A4B9A4264D85A4B1D
:1009640098428CBF00230123002B40F0A880574DF0
:10097400A5FB0035AF0C2668716821F03F0141EA00
:100984009541716021680B6A23F03F0365684D4A05
:1009940095424FD87A1C13430B622568E96921F408
:1009A4004F4121F0FF016368464A93424CD8013815
:1009B4005B00B0FBF3F0013040F6FC73184278D0D2
:1009C400C0F30B030B43EB6121680B6823F0C003F6
:1009D400E269206A024313430B6021688B6823F4A5
:1009E400034323F0FF032269E068024313438B604F
:1009F4002168CB6823F0FF036269A06902431343B3
:100A0400CB602268136843F0010313600020206464
:100A1400202384F83D30206384F83E00F8BD80F83C
:100A24003C30FFF799FC82E7294B98428CBF0023A6
:100A3400012399E74FF4967202FB07F2254DA5FBBB
:100A4400025292090132A6E7A268BAB9461E03EB24
:100A54004307B6FBF7F60136C6F30B06B6FA86F67D
:100A6400760946BBC2B9421E03EB4303B2FBF3F261
:100A74000132C2F30B0242F40043A3E7461E03EB28
:100A8400830707EB8707B6FBF7F60136C6F30B06B9
:100A9400B6FA86F67609E4E7421E03EB830303EB1A
:100AA4008303B2FBF3F20132C2F30B0242F440437C
:100AB40088E7042386E7012384E7012070470120A7
:100AC400ACE700BFA08601007F841E0083DE1B43C9
:100AD400FF083D00D34D62102DE9F04385B0044674
:100AE4000F46914698460C9E00F0F6F8054694F899
:100AF4003D00C0B2202804D00227384605B0BDE826
:100B0400F0830095192301224F492046FFF7C9FDC0
:100B1400002840F0928094F83C30012B00F08F8044
:100B2400012384F83C3023681A6812F0010F03D1C2
:100B34001A6842F001021A602268136823F4006301
:100B44001360212384F83D30102384F83E300023C1
:100B54002364C4F82490A4F82A80638D23853B4B36
:100B6400E3622B46324639462046FFF729FE074604
:100B7400002866D10023039323685A6903929B6972
:100B84000393039B11E0236C042B01D00127B4E7EA
:100B94002268136843F400731360F7E72A4631466A
:100BA4002046FFF791FE00282ED1238D002B36D04E
:100BB4002A4631462046FFF75DFE0028E3D1626AEB
:100BC400236812781A61616A4B1C6362638D9BB25D
:100BD400013B9BB26385238D013B9BB22385226835
:100BE400506910F0040FD9D0002BD7D04B78136183
:100BF400636A01336362638D9BB2013B9BB263857D
:100C0400238D013B2385C9E7236C042B01D00127E5
:100C140073E72268136843F400731360F7E72268EC
:100C2400136843F400731360202384F83D300023D9
:100C340084F83E3084F83C305FE702275DE7022702
:100C44005BE7012759E700BF020010000000FFFF27
:100C540010B504460E4B18784FF47A73B3FBF0F3D7
:100C64000C4A1068B0FBF3F000F0E8FC68B90F2CF4
:100C740001D901200AE0002221464FF0FF3000F0A4
:100C8400A9FC054B1C60002000E0012010BD00BF42
:100C940000000020080000200400002008B5074AD6
:100CA400136843F010031360032000F081FC00205C
:100CB400FFF7CEFFFFF7BAFC002008BD002002407A
:100CC400034A1168034B1B780B441360704700BF41
:100CD4008C05002000000020014B1868704700BFFD
:100CE4008C05002038B50446FFF7F6FF0546B4F13D
:100CF400FF3F02D0044B1B781C44FFF7EDFF401B61
:100D0400A042FAD338BD00BF0000002082B0084BD7
:100D14001B68084AA2FB03235B0A00FB03F301934D
:100D240000BF019B5A1E0192002BF9D102B07047FB
:100D340008000020D34D6210002800F0F18170B546
:100D440082B00446036813F0010F2CD0AA4B5B68F1
:100D540003F00C03042B1DD0A74B5B6803F00C03BA
:100D6400082B12D06368B3F5803F41D0002B55D1D6
:100D740003F1804303F504331A6822F480321A60C5
:100D84001A6822F480221A6037E09B4B5B6813F4E4
:100D9400803FE7D0984B1B6813F4003F03D063688F
:100DA400002B00F0BF81236813F0020F75D0924B23
:100DB4005B6813F00C0F5FD08F4B5B6803F00C0380
:100DC400082B54D02369002B00F089808B4B01221F
:100DD4001A60FFF781FF0546874B1B6813F0020F6B
:100DE40074D1FFF779FF401B0228F5D903209EE157
:100DF400814A136843F480331360636843B3FFF795
:100E04006BFF05467C4B1B6813F4003FCBD1FFF707
:100E140063FF401B6428F5D9032088E1B3F5A02FB4
:100E240009D0754B1A6822F480321A601A6822F4C9
:100E340080221A60E1E703F18043A3F53C331A688A
:100E440042F480221A601A6842F480321A60D4E7AD
:100E5400FFF742FF0546684B1B6813F4003FA2D01E
:100E6400FFF73AFF401B6428F5D903205FE1624B8A
:100E74005B6813F4803FA5D15F4B1B6813F0020F2E
:100E840003D02369012B40F04F815B4A136823F0A0
:100E9400F803616943EAC1031360236813F0080F80
:100EA40032D0A369002B45D0554B01221A60FFF7BD
:100EB40013FF0546504B5B6A13F0020F21D1FFF775
:100EC4000BFF401B0228F5D9032030E14A4A13687E
:100ED40023F0F803616943EAC1031360DDE7474B7C
:100EE40000221A60FFF7F8FE0546434B1B6813F017
:100EF400020FD2D0FFF7F0FE401B0228F5D90320E1
:100F040015E10120FFF702FF236813F0040F00F03E
:100F14009780394BDB6913F0805F1DD1364BDA695A
:100F240042F08052DA61DB6903F080530193019B44
:100F3400012512E0324B00221A60FFF7CDFE054670
:100F44002D4B5B6A13F0020FDED0FFF7C5FE401B8A
:100F54000228F5D90320EAE000252A4B1B6813F484
:100F6400807F11D0E368012B22D0002B38D103F10C
:100F7400804303F504331A6A22F001021A621A6AE2
:100F840022F004021A6218E01E4A136843F48073C4
:100F94001360FFF7A1FE06461A4B1B6813F4807F0B
:100FA400E0D1FFF799FE801B6428F5D90320BEE049
:100FB400114A136A43F001031362E36873B3FFF742
:100FC4008BFE06460C4B1B6A13F0020F37D1FFF75A
:100FD40083FE801B41F288339842F3D90320A6E0B4
:100FE400052B11D0044B1A6A22F001021A621A6A04
:100FF40022F004021A62E0E70010024000004242BC
:1010040080044242007000404D4B1A6A42F00402D0
:101014001A621A6A42F001021A62CEE7FFF75CFE16
:101024000646474B1B6A13F0020F08D0FFF754FE25
:10103400801B41F288339842F3D9032077E0E5B965
:10104400E369002B72D03E4A526802F00C02082A6F
:1010540056D0022B17D03B4B00221A60FFF73CFE00
:101064000446374B1B6813F0007F47D0FFF734FE6C
:10107400001B0228F5D9032059E0314AD36923F033
:101084008053D361DCE72F4B00221A60FFF724FE64
:1010940005462B4B1B6813F0007F06D0FFF71CFEA0
:1010A400401B0228F5D9032041E0236AB3F5803FB1
:1010B4001AD023494B6823F47413226A606A0243EA
:1010C40013434B601F4B01221A60FFF705FE0446D1
:1010D4001B4B1B6813F0007F0ED1FFF7FDFD001BB7
:1010E4000228F5D9032022E0154A536823F400337B
:1010F400A1680B435360DCE7002018E0002016E0F1
:10110400012B16D00E4B5B6803F48031226A9142A6
:1011140011D103F47013626A93420ED1002006E0E9
:1011240001207047012002E0012000E0002002B00D
:1011340070BD0120FBE70120F9E70120F7E700BFBC
:10114400001002406000424286B0164B0FCB0DF1F6
:10115400180C0CE90F0040F20123ADF80430124BD7
:101164005B6803F00C02082A02D0104806B07047EE
:10117400C3F38342624412F8102C13F4803F0CD062
:10118400094B5B68C3F34043634413F8143C0748BA
:1011940000FB02F0B0FBF3F0E8E7054800FB02F0C7
:1011A400E4E700BFA82300080010024000127A0000
:1011B40000093D00002800F0A08070B50D460446EB
:1011C400524B1B6803F007038B420BD24F4A136840
:1011D40023F007030B431360136803F007038B42E8
:1011E40040F08D80236813F0020F17D013F0040F22
:1011F40004D0474A536843F4E0635360236813F010
:10120400080F04D0424A536843F460535360404A81
:10121400536823F0F003A1680B435360236813F071
:10122400010F31D06368012B20D0022B25D0384A1E
:10123400126812F0020F64D035494A6822F00302A2
:1012440013434B60FFF748FD0646314B5B6803F0E0
:101254000C036268B3EB820F16D0FFF73DFD801BD1
:1012640041F288339842F0D9032045E0284A1268B5
:1012740012F4003FE0D101203EE0254A126812F04A
:10128400007FD9D1012037E0204B1B6803F007030E
:10129400AB420AD91D4A136823F007032B4313609A
:1012A400136803F00703AB422DD1236813F0040F36
:1012B40006D0174A536823F4E063E1680B43536094
:1012C400236813F0080F07D0114A536823F46053BE
:1012D400216943EAC1035360FFF736FF0C4B5B6897
:1012E400C3F303130B4AD35CD8400B4B18600B4B6E
:1012F4001868FFF7ADFC002070BD01207047012085
:10130400FAE70120F8E70120F6E700BF00200240D9
:1013140000100240BC230008080000200400002044
:10132400014B1868704700BF0800002008B5FFF79C
:10133400F7FF044B5B68C3F30223034AD35CD84032
:1013440008BD00BF00100240CC23000808B5FFF719
:10135400E7FF044B5B68C3F3C223034AD35CD84062
:1013640008BD00BF00100240CC230008F0B482B0D6
:1013740000252C46ABE0854FBB4210D007D9844FE3
:10138400BB420CD007F58037BB4208D013E0A7F569
:101394008017BB4203D007F57027BB4207D18B6887
:1013A400002B60D0012B59D04261082503E0A7F53A
:1013B4008017BB42F3D0FF2E57D88446FF2E57D850
:1013C400A200DCF800300F27974023EA070305FA50
:1013D40002F21343CCF800304B6813F0805F75D0F1
:1013E4006C4B9A6942F001029A619B6903F0010314
:1013F4000193019BA208971C674B53F827C004F084
:1014040003039F000F23BB402CEA030C634B984259
:1014140034D003F58063984200F0948003F5806330
:10142400984200F0918003F58063984200F08E802A
:1014340003F58063984200F08B8003F58063984243
:101444001AD006231BE0CD68B5E7CD680435B2E7B2
:10145400CD680835AFE7CD680C35ACE702610825E7
:10146400A9E70025A7E70425A5E700F1040CA5E7F3
:10147400A4F108029200A4E7052300E00023BB4086
:1014840043EA0C030232444F47F822304B6813F40A
:10149400803F5FD0424A1368334313604B6813F4B0
:1014A400003F5DD03E4A5368334353604B6813F4A6
:1014B400801F5BD03A4A9368334393604B6813F4BC
:1014C400001F59D0364AD3681E43D66001340B68D6
:1014D40033FA04F256D00122A24003EA020632EAA9
:1014E4000303F3D14B68122B3FF645AF122B3FF6A3
:1014F40062AF01A757F823F0A31300084B140008A8
:101504005514000867140008BB130008BB13000837
:10151400BB130008BB130008BB130008BB1300086F
:10152400BB130008BB130008BB130008BB1300085F
:10153400BB130008BB130008BB1300084F140008BA
:101544005B14000801239AE7022398E7032396E734
:10155400042394E7124A136823EA060313609DE701
:101564000F4A536823EA060353609FE70C4A9368C3
:1015740023EA06039360A1E7094AD36823EA06062F
:10158400D660A3E702B0F0BC704700BF0000221091
:10159400000031100010024000000140000801402A
:1015A400000401400AB101617047090401617047F8
:1015B400074AD36823F4E0631B041B0C000200F405
:1015C400E060034343F0BF6343F40033D3607047E8
:1015D40000ED00E030B4174BDB68C3F30223C3F122
:1015E4000704042C28BF04241D1D062D18D9033B11
:1015F4004FF0FF3505FA04F421EA0401994005FA95
:1016040003F322EA0303194300280BDB0901C9B2DF
:1016140000F1604000F5614080F8001330BC704771
:101624000023E5E700F00F000901C9B2024B195489
:10163400F4E700BF00ED00E014ED00E00138B0F184
:10164400807F0AD2064B5860064AF02182F82310A4
:101654000020986007221A6070470120704700BF7D
:1016640010E000E000ED00E00368244A904212D04C
:1016740002F5006290420ED0B0F1804F0BD0A2F57B
:101684009832904207D002F58062904203D002F56E
:101694008062904203D123F070034A681343174ACF
:1016A400904212D002F5006290420ED0B0F1804F09
:1016B4000BD0A2F59832904207D002F58062904296
:1016C40003D002F58062904203D123F44073CA68C8
:1016D400134323F080034A69134303608B68C36296
:1016E4000B688362054B984203D003F5006398426C
:1016F40001D10B690363012343617047002C01404E
:1017040040B310B5044690F83D30F3B1022384F899
:101714003D30214651F8040BFFF7A6FF012384F85E
:10172400463084F83E3084F83F3084F8403084F802
:10173400413084F8423084F8433084F8443084F8EB
:10174400453084F83D30002010BD80F83C30FEF771
:101754005DFEDBE70120704790F83C30012B33D06D
:1017640030B4012380F83C30022380F83D30036814
:101774005C689D6824F070040A6822435A60036818
:10178400124A934212D002F5006293420ED0B3F192
:10179400804F0BD0A2F59832934207D002F58062B5
:1017A400934203D002F58062934204D125F0800570
:1017B4004A6815439D60012380F83D30002380F87A
:1017C4003C30184630BC704702207047002C014062
:1017D40010B504460268136923F44053C1680B43EF
:1017E400136183680269134342691A430168CB6831
:1017F40023F4B05323F00C031343CB600268536902
:1018040023F4407381690B4353610268124B9A427B
:101814001FD0FFF78BFD00EB800303EB83036268AB
:101824009200B3FBF2F20D48A0FB02314909642394
:1018340003FB11231B013233A0FB03235B0903F0D9
:10184400F00202EB011203F00F03216813448B60D2
:1018540010BDFFF77BFDDEE7003801401F85EB512B
:1018640058B310B5044690F839300BB3242384F8E8
:1018740039302268D36823F40053D3602046FFF73D
:10188400A7FF2268136923F4904313612268536904
:1018940023F02A0353612268D36843F40053D360CE
:1018A4000020E063202384F8393084F83A3010BDF6
:1018B40080F83830FEF7DAFDD8E70120704770472A
:1018C40010B582B003681B7C446B03FB01F1C900B3
:1018D40089B221440091002100F0AEFC02B010BD99
:1018E4002DE9F041064690F8387090F839500368B5
:1018F40093F8118000242A4621463046FFF7E0FF82
:101904000134E4B20135EDB2A74201D9A845F2D8B9
:10191400BDE8F08108B503681A7C90F8383002FB02
:1019240003F2D2000021406B00F028FD08BD10B581
:101934000446FFF7D5FF204600F0A4FC10BD2DE9B6
:10194400F84380460F4691461C469DF820609DF85A
:10195400245015F0010F0AD115F0020F16D115F01D
:10196400080F24D115F0040F32D1BDE8F883B21A60
:101974005918D2B2C9B200F05DF9F21B04EB0901A7
:10198400D2B2C9B2404600F055F9E5E7A6EB090228
:10199400E11BD2B2C9B2404600F04CF9F21BA4EBF1
:1019A4000901D2B2C9B2404600F044F9D7E706EBC8
:1019B4000902E119D2B2C9B2404600F03BF9BA19A2
:1019C40004EB0901D2B2C9B2404600F033F9C9E7C9
:1019D40006EB0902E11BD2B2C9B2404600F02AF973
:1019E400BA19A4EB0901D2B2C9B2404600F022F9F7
:1019F400BBE72DE9F04F85B00390894692461E4619
:101A04009DF838B0C3F1010464B2C3EBC3184FEAC4
:101A140048084FFA88F8CDF804B000920B463246D5
:101A24000021FFF78CFF0025012710E00135EDB2FE
:101A34000237FBB27FB21C4464B2CDF804B0CDF8D7
:101A440000A04B46324629460398FFF778FFB5427B
:101A54000CD2002CEADB013EF6B208F102085FFA70
:101A640088F34FFA88F81C4464B2DFE705B0BDE898
:101A7400F08F2DE9F04182B080460E4617461D4690
:101A8400CB18DBB2AC18E4B20133521B491B01344E
:101A9400E4B20094DBB2D2B2C9B200F0FCF810B9DF
:101AA40002B0BDE8F0819DF8203000932B463A4601
:101AB40031464046FFF79DFFF2E70000082303701C
:101AC40000487047AC00002030B585B004460D4690
:101AD40000931346084A094900F0F6FB0DF10F0084
:101AE400FFF7ECFF01460095054B9DF80F202046BB
:101AF40000F0C4F905B030BDE51F000891210008CD
:101B0400C71C000800207047014B0365704700BFE5
:101B1400091B000830B405780C782C44E4B2A542C3
:101B240003D99D4211D25C1EE4B29D420FD294426D
:101B34000FD9954200D32A469C4200D8234602700E
:101B44009B1A0B70012030BC70471546EDE700204E
:101B5400F9E70020F7E730B583B090F83C50521B0A
:101B6400C46A9DF818500095D2B2A04703B030BDA6
:101B740070B584B004469DF820008DF80F108DF8E0
:101B84000E208DF80D3094F87C305BB39DF80D3049
:101B940043B3012B03D9022826D003282BD010F0FD
:101BA400010530D194F843209DF80E309A4219D89B
:101BB40094F84420934215D294F8423094F841208A
:101BC4000DF10D010DF10F00FFF7A4FF50B1236BD0
:101BD4009E6800959DF80D309DF80E209DF80F101D
:101BE4002046B04704B070BDCAB2D31ADBB2013389
:101BF4008DF80F30D3E79DF80E20D31ADBB20133F2
:101C04008DF80E30CBE794F841209DF80F309A42BE
:101C1400E8D894F842209342E4D294F8443094F8FB
:101C240043200DF10D010DF10E00FFF773FF0028A5
:101C3400CDD1D7E790F8433093420BD890F8443095
:101C4400934207D990F841308B4203D890F8423040
:101C54008B4200D8704700B583B000230093012362
:101C6400FFF786FF03B05DF804FB8A4205D2834286
:101C740009D89A4209D901207047834207D99A4268
:101C840007D90120704701207047002070470020C9
:101C940070470020704770B504460D461E469DF8F7
:101CA400103090F8441090F84300FFF7DEFF38B18D
:101CB40033462A4694F8421094F84100FFF7D5FFC2
:101CC40070BDF0B59DF814E002F007050124AC40A6
:101CD400E4B290F88270012F19D90026012F18D090
:101CE40002F0F802076897F810C0476B02FB0C1269
:101CF400B918BEF1000F16D10A783243D2B262404D
:101D040001F8012B013B13F0FF03F5D1F0BD26468A
:101D1400E4E70024E4E7012617E07600F6B2640065
:101D2400E4B2002BF2D00A783243D2B262400A7095
:101D34006A1C013BDBB212F00705EED190F83A20A1
:101D4400114490F88220012AE5D9012AE9D001241E
:101D5400E7E770B4016890F83830DA0080F83B2087
:101D64000A7C1F2A00D91F22D20080F83A2090F85A
:101D74003950EA00D2B280F83C205E194C7CA6426D
:101D840001DD631BDBB2DB00DBB280F83D201344D2
:101D940080F83E30F02380F83F308B8AF02B01D856
:101DA40080F83F30CB8A80F8403070BC704708B56B
:101DB400FFF7CFFF08BD10B582B0044690F8483055
:101DC400009390F8463090F8472090F84510FFF7BC
:101DD40062FF20B9002384F87C3002B010BD0123D7
:101DE40084F87C3094F8412094F845309A4201D22A
:101DF40084F8413094F8422094F846309A4201D94C
:101E040084F8423094F8432094F847309A4201D23F
:101E140084F8433094F8442094F848309A42DCD94A
:101E240084F84430D9E708B5002280F8412090F8BE
:101E34003F2080F8422090F83D2080F8432090F81D
:101E44003E2080F84420FFF7B6FF08BD10B582B0ED
:101E54009DF810400094FFF77EFE02B010BD08B557
:101E6400002280F8452080F84720FF2280F8462091
:101E740080F84820036B5B68984708BD70B504463A
:101E8400049E0025C564C362416380F8382080F84D
:101E9400395080F85F5080F88150012380F88230F7
:101EA40080F883300663336898472046FFF7D7FFEE
:101EB4002046FFF729FE84F8625070BD10B5134622
:101EC40004690A461721A04710BD00B583B08DF8F8
:101ED40007100DF107020121FFF7F0FF03B05DF8D1
:101EE40004FB10B5046900231A461821A04710BD4D
:101EF40010B5046900231A461921A04710BDF8B58E
:101F040004460D461646FFF7ECFF40212046FFF736
:101F1400DCFF276933462A4617212046B847204666
:101F2400FFF7E6FFF8BD10B50A46C4680023152183
:101F3400A04710BD10B50A46C46800231621A04767
:101F440010BD10B51346C4680A461721A04710BD3A
:101F540010B5C46800231A461821A04710BD10B557
:101F6400C46800231A461921A04710BD70B582B079
:101F740006460D4616E015290CD202B070BDFE29A6
:101F8400FBD122788DF807202921304600F081F911
:101F9400023507E022788DF80720F46800233046E4
:101FA400A04702352C4614F8011B1929E7D8182933
:101FB4000ED21629DFD91729DFD123788DF80730FF
:101FC4000DF1070201213046FFF7BBFF0235E9E7B7
:101FD400F56800231A463046A8472546E2E7000084
:101FE400F8B5054614461E46A1F11402052A56D832
:101FF400DFE802F03703181D454A2A4B1B7873B9F2
:102004002846FFF76EFF00212846FFF75EFF2146B2
:102014002846FFF75AFF0120224B187020E0FFF7F3
:1020240067FFEDE72146FFF750FF012018E01D4B45
:102034001B7853B1FFF75CFF07E0324618212846AE
:10204400FFF75DFF183CE4B21836182CF5D8324679
:1020540021462846FFF753FF124B00221A70012035
:10206400F8BD90F82430FF2B05D02F693346224663
:102074002846B847F4E7782380F82430F5E7094B7D
:1020840000221A700120EBE7064B1B7823B9054B9D
:1020940000221A700120E3E7FFF72AFFF7E7002088
:1020A400DEE700BFAC040020F8B5064615461C4622
:1020B4000B39042960D8DFE801F0035F0E213000FA
:1020C40022B92E49FFF752FF012054E02C49FFF7B3
:1020D4004DFF01204FE042B92A49FFF747FF33681B
:1020E4009B7C86F82230012045E02749FFF73EFF1C
:1020F4003368DB7C86F8223001203CE0FFF728FFC0
:1021040081213046FFF70FFF29463046FFF712FFC3
:102114003046FFF724FF01202DE0FFF719FF677910
:10212400FF00FBB296F822701F44FFB240213046F4
:10213400FFF7F9FE390941F010013046FFF7F3FECD
:1021440007F00F013046FFF7F5FEA17941F0B00129
:102154003046FFF7EFFE2179C900226801F0F8014B
:102164003046FFF7EEFE6A1E12F0FF05F3D130464B
:10217400FFF7F5FE0120F8BD0020FCE72824000845
:1021840030240008E0230008E823000838B5054699
:102194000C46FFF789FF98B90346092C0AD00A2C8C
:1021A4000FD1284600F019F807492846FFF7DEFE4C
:1021B400012306E00549284600F00AF8012300E05F
:1021C4000123184638BD00BFF02300083824000856
:1021D40001608B7C80F82230704738B5044645692D
:1021E40000231A462821A847E56800231A4614212B
:1021F4002046A84701224B21204600F04AF82368D4
:102204001A792921204600F044F800224B21204667
:1022140000F03FF823681A792921204600F039F8A4
:1022240001224B21204600F034F823685A792921F1
:10223400204600F02EF838BD10B582B08DF8051098
:102244008DF806208DF80430049B009384686B4657
:1022540001220F21A04702B010BD10B584680023ED
:102264001A460921A04710BD10B5846800231A46F8
:102274000A21A04710BD10B50A46846800230B212B
:10228400A04710BD10B5846800231A461021A0474A
:1022940010BD10B544690023A04710BD002070474D
:1022A40000230360074A8260C2600261426180F8D1
:1022B400233080F826308361FF2380F8243080F8AF
:1022C40028307047A1220008F8B504460F46164688
:1022D4001D46FFF7E5FFA760E6602561069B636185
:1022E4002046FFF7BAFFF8BD002103E00B4B5B5813
:1022F400435004310A480B4B42189A42F6D30A4A17
:1023040002E0002342F8043B084B9A42F9D3FFF75A
:10231400D6FA00F00FF8FDF7ACFF70475824000818
:10232400000000200C0000200C000020900500207C
:10233400FEE7000070B500260C4D0D4C641BA41084
:10234400A64209D100F022F800260A4D0A4C641B6B
:10235400A410A64205D170BD55F8043B9847013638
:10236400EEE755F8043B98470136F2E7502400089D
:102374005024000850240008542400080346024452
:10238400934200D1704703F8011BF9E7F8B500BF89
:10239400F8BC08BC9E467047F8B500BFF8BC08BC42
:0423A4009E4670479A
:1023A80002030405060708090A0B0C0D0E0F10108E
:1023B800000000000000000000000000010203040B
:1023C800060708090000000001020304B31D000805
:1023D8002B1E0008511E00081815A115C819FF006A
:1023E8001815A015C019FF001815AE15D5168015BB
:1023F800A8163F15D316001540158D16141520166E
:102408000015A115C815DA1612158116CF15D9169B
:10241800F115DB1640152E15A415A619FF000000AE
:102428001815AF19FF0000001815AE19FF000000BD
:102438000001140A6464323200127A0000042896FB
:082448001008000080004000B4
:042450000902000875
:04245400E501000896
:0C24580001000000100000000024F4004F
:04000005080022EDE0
:00000001FF
